:020000040000FA
:10000000803500100D0200001102000013020000F4
:100010001502000017020000190200000000000095
:10002000000000000000000000000000E1000000EF
:100030001D02000000000000490100000116000040
:10004000230200002302000023020000230200001C
:1000500023020000F11B0000A91C0000611D00002C
:100060001D1F0000230200002302000023020000E5
:1000700023020000230200002302000023020000EC
:1000800023020000230200002302000023020000DC
:1000900023020000230200002302000023020000CC
:1000A00023020000230200002302000023020000BC
:1000B00023020000230200002302000023020000AC
:1000C000230200002302000023020000DFF80CD00E
:1000D00000F0FEF800480047612000008035001065
:1000E000052828BF70474FEA80007844D0F802F016
:1000F000490100000F010000AD010000CD0100002A
:10010000ED0100004FF0010080F3148800DF0A4C7D
:100110004FF001052570774600F091F8BE46074E76
:100120003668074C2660D6F800D001BC0549086047
:10013000BDE8F00F704700BF9B000010AC0000103E
:10014000A4000010C00000104FF0080282F31188D4
:1001500000B500F074F85DF804EB2DE9F00F0E49DE
:10016000086801B40D4A1268C2F800D00C4C0D4D5D
:100170002E7826700C4E3668084C2660D6F800D0D3
:1001800001BC086000280CBF0022082282F31188FD
:10019000BDE8F00F704700BFC0000010A4000010C1
:1001A0009000001091000010AC0000100649086893
:1001B00000F101004FF0080282F31188002808BF07
:1001C00070470860704700BFC0000010064908680B
:1001D00000281CBF01380860002818BF70474FF086
:1001E000000282F311887047C00000104FF0000039
:1001F00080F3148870474FF0010080F31488704733
:1002000088476FF0FF0000F029FD00000548004717
:10021000FEE7FEE7FEE7FEE7FEE7FEE7FEE7FEE7B6
:10022000FEE7FEE7CD0000007047704700BF704753
:1002300000BF70477047704700BF704770477047F6
:10024000D2B201E000F8012B491EFBD27047002218
:10025000F6E710B513460A4604461946FFF7F0FFC5
:10026000204610BD0EB540F2334102910021CDE988
:1002700000110A460B4600F0BFF803B000BDC1F301
:100280000A5210B5C1F3130140F2FF3341F480115B
:100290009A4201DA002010BD40F233439A42A2F2A2
:1002A000334203DC524200F003F810BD904010BD11
:1002B000202A04DB203A21FA02F00021704721FABB
:1002C00002F3D040C2F12002914008431946704722
:1002D000064C074D06E0E06840F0010394E8070093
:1002E00098471034AC42F6D3FFF7F4FE882A00009A
:1002F000A82A00007047704700000000FFFFFFFFC2
:100300002DE9F04D81EA030404F0004B21F0004593
:1003100014464FF0000A23F0004150EA050220D0B5
:1003200054EA01021DD0C5F30A570246C5F3130370
:10033000C1F31300C1F30A5640F4801543F480134F
:10034000A7EB0608101BD64608F2FD3873EB050034
:1003500002D308F1010801E092185B41B8F1000FE7
:1003600003DA00200146BDE8F08D00204FF4801133
:10037000064684460EE0171B73EB050705D3121BD8
:1003800063EB050306434CEA010C49084FEA3000D1
:1003900092185B4150EA0107EDD152EA030012D0F6
:1003A00082EA040083EA0501084303D100224FF0EA
:1003B000004308E0101BAB4102D20122002302E0FF
:1003C0006FF0010253101AEB06004CEB085110EBD2
:1003D0000A0041EB0B01BDE8F04DAFF3008010B512
:1003E000002B08DA401C41F1000192185B411A43CE
:1003F00001D120F0010010BD2DE9F04D92469B4641
:1004000011B1B1FA81F202E0B0FA80F220329046E6
:1004100000F044F804460F4640EA0A0041EA0B01A6
:1004200053465A46084303D120463946BDE8F08D6D
:10043000114653EA010015D0C8F140025046FFF7BB
:1004400037FF05460E4650465946424600F026F80C
:10045000084301D0012000E00020054346EAE07691
:100460002C4337430A984FEA4453A0EB08004FEA65
:10047000D4240A304FF0000244EA47544FEAD7250B
:1004800002D500200146D1E7010510196941DDE9D7
:10049000084500196941BDE8F04DA0E7202A04DBBA
:1004A000203A00FA02F1002070479140C2F1200387
:1004B00020FA03F319439040704742F2107000BFD6
:1004C0000100A0F1010290B2FAD1704710B50022EC
:1004D0000023002401F03CF80446002228E001201B
:1004E0009040204211D01448805C401C124988542E
:1004F0000846805C052819DB0520885400200F4938
:10050000885401209040034310E00C48805C401C5C
:100510000A4988540846805C052807DB0520885472
:10052000002005498854012090408343501CC2B2EA
:100530000D2AD4DB184610BDB4150010C1150010EB
:10054000132870D2DFE800F0CB27323D48535E69B4
:1005500075808B96A1AC0A151EB7C20021B94FF465
:100560008022604BDA6103E04FF480225D4B9A6198
:10057000B6E019B904225B4BDA6502E00422594B5C
:100580009A65ADE019B90222564BDA6502E0022203
:10059000544B9A65A4E021B94FF00072514BDA63D5
:1005A00003E04FF000724F4B9A6399E021B94FF08E
:1005B00080724C4BDA6303E04FF08072494B9A63D0
:1005C0008EE021B94FF40002464BDA6303E04FF4AA
:1005D0000002444B9A6383E021B94FF48002414BFF
:1005E000DA6303E04FF480023E4B9A6378E021B96E
:1005F0004FF000723B4BDA6103E04FF00072394B71
:100600009A616DE021B94FF08072364BDA6103E0F8
:100610004FF08072334B9A6162E029B94FF40002C7
:10062000304BDA6104E05AE04FF400022D4B9A613E
:1006300056E021B94FF480222A4BDA6303E04FF4ED
:100640008022284B9A634BE021B94FF40022254BBE
:10065000DA6303E04FF40022224B9A6340E021B9B1
:100660004FF480121F4BDA6303E04FF480121D4BEE
:100670009A6335E021B94FF400121A4BDA6303E0B4
:100680004FF40012174B9A632AE021B94FF08062B1
:10069000144BDA6303E04FF08062124B9A631FE061
:1006A00021B94FF080620F4BDA6103E04FF08062B6
:1006B0000C4B9A6114E021B94FF40032094BDA6116
:1006C00003E04FF40032074B9A6109E019B9102298
:1006D000044BDA6502E01022024B9A6500E000BF8D
:1006E00000BF704700C009201148406B10F0005F48
:1006F0000ED110480078401C0E490870084600785A
:10070000052811DB0520087001200B4908700BE05B
:1007100009480078012807D10020064908700649D9
:1007200008700120054908700448007870470000EF
:1007300000C009206C0000106D0000107200001055
:1007400000200E49496B11F4804F01D040F00100A8
:100750000A49496B11F4004F01D040F002000749EB
:10076000496B11F4803F01D040F004000349496B0C
:1007700011F4003F01D040F00800704700C009208C
:1007800010B500243248006840F4802030490860E9
:100790000846006C40F0040008640846006C40F015
:1007A000020008640846006840F40030086008460B
:1007B000006C40F0100008640846006840F080605B
:1007C00008600846006840F000700860084600684D
:1007D00040F0807008600846006840F4000008603F
:1007E0000846006A40F4802008620846006A40F427
:1007F000002008620846006A40F48010086208463B
:10080000006A40F4001008620846006A40F4800064
:1008100008620846006A40F4000008620846006A60
:1008200040F0807008620846006A40F0007008627C
:100830000846006A40F080600862012405E001215A
:100840002046FFF77DFE601CC4B2122CF7DD10BD00
:1008500000C0092000F01F020121914042094FF021
:10086000E02303EB8202C2F80011704710B50028A4
:1008700007DACA06140E054A00F00F031B1FD454F2
:1008800003E0CA06130E024A135410BD18ED00E02F
:1008900000E400E010B5FFF7C7FC00F061FC00F0D9
:1008A00089FC00F0ABFC00F041FC00F013FC00F010
:1008B00005FD00F025FD00F0C9FC00F0E3FCFFF7AA
:1008C000B4FC10BD4FF08050014908607047000033
:1008D00004ED00E006480078012808D105480078BA
:1008E000FF2804DA03480078401C0249087070476A
:1008F0009B0000108D00001010B51E4800780128E4
:1009000037D1022000DF1C480078002804DD1A4897
:100910000078401E184908701748007838BB1748FF
:10092000007820BB164817490978405C16490870C2
:1009300016480978405C1249085C1349097800EBB5
:10094000C1001349087008460078124909788842A6
:100950000DD011480E49097850F821000F49086060
:100960000F480068401C0E490860FFF7ABFF0320EA
:1009700000DF10BD9B0000108D0000108F000010E4
:1009800086290000920000108E00001093000010D5
:100990009100001090000010B82B0010AC00001067
:1009A0007400001070B505460E480078002801DD7F
:1009B000002070BD022000DF0B480468006820B1F1
:1009C00009480068406808490860032000DF3CB11E
:1009D00003202070658000206060204600F064FBEA
:1009E0002046E6E78D0000107800001070B505463F
:1009F0000E46144626480078002802DD02202070AA
:100A000070BD15B904202070FAE72878032802D0B9
:100A100001202070F4E7022000DF6888002807DD4D
:100A20006888401E6880032000DF00202070E7E710
:100A30001848006890F82C0040F00100154909683A
:100A400081F82C00134800684685284600F0ECFA2F
:100A5000032000DF00F06CFC022000DF0D4800687E
:100A600090F82C0010F0010F07D0284600F052FA41
:100A7000032000DF0A202070C2E700200549096832
:100A8000C861032000DF0020207000BFB8E700002D
:100A90008D000010A400001010B504460CB904200D
:100AA00010BD2078032801D00120F9E7022000DFE3
:100AB000607850B101220021204600F051FA032055
:100AC00000DF00F035FC0020EAE760884FF6FF7198
:100AD000884206DA6088401C6080032000DF002026
:100AE000DEE7032000DF3220DAE7000070B51048AF
:100AF0000078E0B90F4810490978445C0F48005D60
:100B00000C490D5C05EBC4000D49087008460078DF
:100B10000C4908700C480A49097850F821000B4923
:100B20000860084600680A49086000F013F870BDC4
:100B30009B00001086290000920000109300001016
:100B40009100001090000010B82B0010AC000010B5
:100B5000A400001010B5104800680F490860081D77
:100B600000680E4908430C49091D0860042000DF95
:100B70004FF0E020C06920F04040642148434FF42A
:100B80007A71B0FBF1F04FF0E02148610720086175
:100B9000FFF7B8FA10BD00001CED00E00000FF8078
:100BA0002DE9FF5F81468A4693461C46DDE90F78B2
:100BB000129D3F2C03DD2A2004B0BDE8F09F0220E7
:100BC00000DF234850F8240000283DD101202049AF
:100BD00041F82400032000DF15F0010F02D115F0C9
:100BE000020F04D04FEA88013846FFF730FB2B464E
:100BF0005A465146484600F0D5F803901198CDE981
:100C0000008002953A4620460E9B039900F0D0FBE7
:100C100006467EB9022000DF0E480078401C0D49D0
:100C20000870032000DF0C48007801280AD100F08A
:100C30007FFB07E0022000DF0020054941F8240087
:100C4000032000DF3046B7E7032000DF2820B3E7AA
:100C5000B82B00109C0000109B0000102DE9F04103
:100C6000054647480078002802DD3F20BDE8F081B6
:100C70003F2D01D13D20F9E73F2D03DBFF2D01D0B2
:100C80002A20F3E7022000DFFF2D03D13D48006852
:100C900090F82D503C4850F82540002C6CD014F8AA
:100CA0002F0F3A49085C6178884314F82F19374AA6
:100CB000505406D194F831103548007888433449AF
:100CC0000870E6698EB114F82F1F06F10800405C29
:100CD0006178884314F82F2906F10801885404D15B
:100CE000707894F8311088437070676A17B138468D
:100CF00000F00AFA0020608584F82C00254800786E
:100D0000FF2804DA23480078401C22490870032099
:100D100000DFFFF7EFFA022000DF1E48007800280E
:100D200004DD1C480078401E1A4908702046FFF771
:100D30007FFA19480078401E1749087000201249B0
:100D400041F82500A06930B9002061698861134924
:100D50006069086005E0D4E905014861D4E905103F
:100D600088610F48006860610D480460032000DF5F
:100D700000F0DEFA002079E7032000DF3C2075E771
:100D80008D000010A4000010B82B0010930000107C
:100D9000920000108F0000109C000010B0000010A6
:100DA000A800001070B5044600BF22F007004FF005
:100DB00080750560194E051F28462E600026051F08
:100DC00028462E60051F28462E60051F28462E60E7
:100DD000051F28462E60051F28462C60051F284643
:100DE0002960051F28462E60051F28462E60051F16
:100DF00028462E60051F28462E60051F28462E60B7
:100E0000051F28462E60051F28462E60051F284610
:100E10002E60051F28462E6070BD000001020000F4
:100E200010B50446002C23DD022000DF11480068C5
:100E300090F82F001049085C0E49096891F83010AD
:100E400088430C49096891F82F100B4A505408D177
:100E50000848006890F8311008480078884307492E
:100E60000870044800684485032000DF00F060FA41
:100E700010BD0000A40000109300001092000010AC
:100E800010B5FFF7DBF9022000DF1D480068401CA9
:100E90001B490860032000DF1A48007801282ED182
:100EA0001948046827E0022000DF608D00B3608DE0
:100EB000401E0004000C60851AD194F82C0010F03C
:100EC000080F13D104F12F04A0781049097840EAE3
:100ED00001000E49087020780D49085C617840EAED
:100EE000010014F82F190A4A505401E001206085CE
:100EF0006469032000DF94F82D003F28D3D110BD92
:100F0000BC0000109B000010B00000109200001008
:100F1000930000101149096891F82F2000F1080191
:100F2000895C0E4A126892F8302091430B4A12688D
:100F300092F82F3000F10802D15406D14178074AC7
:100F4000126892F83120914341700021034A1268DF
:100F500082F82C10014A1268D1617047A400001079
:100F60002DE9F04303460C46154693F80180DFF85F
:100F7000A49019F80820DFF8A08018F802C003F147
:100F8000080818F8028019F80860DFF88C8018F853
:100F9000067006EBC20808F0FF0003F1080818F815
:100FA000028038EA070803F1080909F8028005D130
:100FB00093F8018028EA0C0883F80180DFF85C8050
:100FC00058F820104FF00008A1F82A80C1F81C80C2
:100FD0000C6291F82C8028EA050881F82C8091F8A1
:100FE0002C80B8F1000F13D1DFF8348098F800801E
:100FF00048EA0C08DFF8289089F80080DFF82480A0
:1010000018F8028048EA0708DFF8189009F802800B
:10101000BDE8F083862900007E290000B82B00106F
:1010200092000010930000101C490968C8611B4918
:10103000096891F82F101A4A515C184A126892F800
:1010400030209143154A126892F82F20144B99547E
:1010500008D11249096891F8312012490978914361
:10106000104A11700D49096891F82F2000F108010C
:10107000895C0A4A126892F830201143074A1268C4
:1010800092F82F3000F10802D1544178034A1268D7
:1010900092F831201143417070470000A400001005
:1010A0009300001092000010014600224A7001F1E6
:1010B000080000F8012B00F8012B00F8012B00F8C4
:1010C000012B00F8012B00F8012B00F8012B027016
:1010D0007047000010B50A4800F10C02002106E03C
:1010E0000023037042600C300C324B1CD9B20E2925
:1010F000F6DB00234360024B024C236010BD00006E
:10110000042300107C00001030B501464A680868CE
:101110002AB9CC68606028B10025456002E0106003
:1011200000B142608B6800255D6230BD10B50A4891
:1011300000F11002002106E000230370426010302D
:1011400010324B1C99B24329F6DB00230370436035
:10115000014B024C236010BDC41E0010780000102B
:1011600000200A4908600A4908700A4908700A49BB
:1011700008700A4908700A4908600A4908600A4963
:1011800008600A4908600A4908707047BC000010EE
:101190008D0000108F0000109C0000109B000010BC
:1011A00074000010A00000108800001084000010DF
:1011B0008C00001000220B4B1A700B49002004E039
:1011C000002201F8012B421C90B20828F8DB002213
:1011D000064B1A70064B1A70064B1A60064B1A60C3
:1011E0007047000092000010930000109000001063
:1011F00091000010AC000010A400001010B50023F6
:101200000E4C2360002005E000230D4C44F82030F4
:10121000431CD8B24028F7DB0A4901F13402002010
:1012200004E04A6134313432431CD8B21528F8DB6B
:1012300000234B61034B044C236010BDB000001031
:10124000B82B0010B82C0010A800001000B585B015
:10125000032000214FF48072074BCDE90132CDE924
:1012600003104FF6FF703F23044A00900448FFF735
:1012700097FC05B000BD0000B8270010B42B00108B
:10128000A514000000B585B0032000214FF4807242
:10129000074BCDE90132CDE903104FF6FE703E2336
:1012A000044A00900448FFF77BFC05B000BD000035
:1012B000B8230010B4270010C51400000E48002108
:1012C0000EE04A1C02EB82020B4B03EB82024260EF
:1012D000002202600261C260826014304A1C91B236
:1012E0000E29EEDB0022426002600261C260826071
:1012F000014A024B1A60704730310010B4000010F0
:1013000010B5094800F11802002104E0026018300D
:1013100018324B1C99B20B29F8DB00230360024BF7
:10132000024C236010BD00005C320010B8000010B9
:1013300010B5022000DF1448007810BB1348007875
:10134000F8B9134813490978445C1348005D104903
:10135000085C00EBC4001149087008460078104989
:10136000097888420DD00F480C49097850F82100BF
:101370000D4908600D480068401C0C4908600020B9
:1013800000DF032000DF10BD8D0000108F00001073
:1013900086290000920000109300001091000010B8
:1013A00090000010B82B0010AC000010740000106A
:1013B0002DE9F05F05460E4617469846DDE90BAB72
:1013C000DDF82890022000DF30480468002C59D056
:1013D00054F8140F2D490860032000DF44F8146C02
:1013E000657600202076E08244F810AC44F8089C32
:1013F00044F80C7C24F804BC24F8028CA077E81094
:10140000E076E07E2249085C607705F00700A07670
:10141000A07E085C20770020A0602061E060A4F13D
:1014200014042046FEF708FF2046FEF7FFFE0220C8
:1014300000DF184840F82540174800686061002028
:10144000A0611548006810B1134800688461124813
:10145000046004F12F04A0781049097840EA0100E3
:101460000E49087020780E49085C617840EA010056
:1014700014F82F190A4A50544FF0030000DF0020DF
:10148000BDE8F09F032000DF4620F9E7A800001028
:101490007E290000B82B0010B00000109200001050
:1014A0009300001000BF00BF022000DF0448006866
:1014B000401C03490860032000DFFEF7BBFEF3E792
:1014C000A000001000BF03E04FF4FA60FFF7A8FC93
:1014D0001A4800780028F7D0194800686421B0FB4A
:1014E000F1F400BF022000DF1648006816490860CA
:1014F00014480668002013490860032000DF6CB11F
:10150000B6FBF4F0C0F1640045B2002D02DB0F48D9
:1015100005700BE000200D49087007E000200B4922
:101520000870074800686421B0FBF1F4FEF783FE01
:101530004FF47A70FFF774FCD4E700008C000010C1
:1015400084000010A000001088000010800000102F
:1015500000202A49496911F4002F01D140F001000F
:101560002649496911F4801F01D140F00200234946
:10157000496911F4001F01D140F004001F49496975
:1015800011F4800F01D140F008001C49496D11F49D
:10159000006F01D140F010001849496D11F4805FCF
:1015A00001D140F020001549496D11F4005F01D1CF
:1015B00040F040001149496911F4006F01D140F039
:1015C00080000E49496911F4806F01D140F48070A8
:1015D0000A49496911F0020F01D140F4007007492E
:1015E000496911F0010F01D140F480600349496B52
:1015F00011F0805F01D140F40060704700C0092005
:1016000010B54FF0E0200069FFF764F9FFF738FCF0
:10161000FFF772F910BD000020207749086000BF75
:101620007548006810F0400FFAD003207349086035
:101630004FF000007249C1F8A801724908604FF0EC
:101640000100714908604FF00F00704908604FF0C9
:101650000100A1F1040108604FF0AA006C49086084
:101660004FF055006649C1F88C0000BF694800681A
:1016700010F0806FFAD00320674908604FF0AA008D
:101680005F49C1F88C004FF05500614908604FF088
:101690000000624908606248624908604FF000003B
:1016A0005749C1F8C8015B480068C0F301600328CE
:1016B00068D15548006810F0030006D0012823D0F7
:1016C00002283FD003285CD100E000BF51480068E9
:1016D000C0F30E0000F101004FEA4000524900FB48
:1016E00001F04749D1F88810C1F3074101F1010128
:1016F000B0FBF1F141480068C0B200F10100B1FB5C
:10170000F0F04A4908603CE042480068C0F30E002F
:1017100000F101004FEA4000454900FB01F0384963
:10172000D1F88810C1F3074101F10101B0FBF1F1DB
:1017300032480068C0B200F10100B1FBF0F03B4953
:1017400008601EE033480068C0F30E0000F101009D
:101750004FEA40004FF4FA4100FB01F02849D1F86C
:101760008810C1F3074101F10101B0FBF1F12348F9
:101770000068C0B200F10100B1FBF0F02B49086035
:1017800000BF2FE02048006810F0030006D00128B9
:1017900010D0022819D0032823D100E000BF174839
:1017A0000068C0B200F101001F49B1FBF0F01F4911
:1017B000086016E011480068C0B200F101001C4941
:1017C000B1FBF0F0194908600BE00C480068C0B2AA
:1017D00000F101004FF4FA41B1FBF0F01349086049
:1017E00000BF00BF0648006820F4704040F480400D
:1017F0000349086070470000A0C10F4004C10F40BA
:1018000000C00F40ACC10F400CC10F4084C00F405E
:101810008CC00F4088C00F4080C00F4008C10F40EF
:10182000DEE72807C4C00F4000093D00000000109B
:10183000001BB70000240025FEF7A2FF8CE000F09B
:1018400087FFFEF77DFF454908700846007800F0E5
:101850000800082803D102204149087002E0012055
:101860003F4908703D48007800F00700072849D03C
:10187000FEF72CFE3B490860FEF736FF3A48006849
:101880003A490968884207D03848006838490860F2
:101890003648006834490860002412E00120A04066
:1018A00033490968084205D0611CC8B20021FEF71F
:1018B00047FE04E0611CC8B20121FEF741FE601C36
:1018C000C4B20D2CEADB2B4800782B4909788842FA
:1018D0000BD101210D20FEF733FE002025490870B1
:1018E000264908702449087031E02248007828B160
:1018F000234801780D20FEF723FE28E000201E4932
:10190000087024E01548007800F0070007281ED171
:10191000FEF7DCFD134908600846006819490860B5
:10192000002412E00120A04016490968084205D0B1
:10193000611CC8B20021FEF703FE04E0611CC8B2BE
:101940000121FEF7FDFD601CC4B20D2CEADB681C12
:1019500085B26420FFF764FA71E7000028000010E8
:1019600029000010140000100C00001008000010E6
:101970002000001011000010720000101000001074
:10198000050000101800001088B000250020079006
:10199000069005900490002480212348FEF757FC10
:1019A00041E001211120FEF7CBFD04A800211E4AD1
:1019B00005ABCDE90021029006AA07A91B480078D3
:1019C00000F03CFC05460CB9012000E00020044674
:1019D00021460E20FEF7B4FD012D15D112499DF8C8
:1019E0001C0000F0C5FB00211120FEF7A9FD0E48E8
:1019F0000090BDF81430BDF818209DF81C100B485D
:101A0000007800F047FD0EE09DF8100058B100216D
:101A10001120FEF795FD9DF810209DF81C1003483D
:101A2000007800F0DBFBBCE7E21500102900001095
:101A300010B5044600F052F810BD00000026002446
:101A400000250020214908703EE0701CC6B2012E1E
:101A500008D11F48007808B9012000E000201C4987
:101A600008700026601CC4B2022C08D11948007806
:101A700008B9012000E00020164908700024681C05
:101A8000C5B2042D08D11448007808B9012000E03F
:101A900000201149087000250C480078012807D162
:101AA00000211020FEF74CFD00200849087003E0DB
:101AB00001211020FEF744FD064801780F20FEF7B3
:101AC0003FFDFA20FFF7ACF9BFE700000700001068
:101AD00004000010050000100600001004240D256D
:101AE0000D260D275AE02E48007890B12D48007839
:101AF000401C2C49087008460078A04209DD2A489D
:101B000000882A49088000F0C7FD29480068FEF7D0
:101B1000C3FF2848007890B127480078401C264928
:101B2000087008460078A84209DD24480088244946
:101B3000088000F0CBFD23480068FEF7ADFF224887
:101B4000007890B121480078401C20490870084670
:101B50000078B04209DD1E4800881E49088000F068
:101B6000CFFD1D480068FEF797FF1C48007890B134
:101B70001B480078401C1A49087008460078B84293
:101B800009DD184800881849088000F0D3FD17487F
:101B90000068FEF781FF0120FFF742F9A3E700008C
:101BA0005400001055000010560000106400001092
:101BB0002C00001058000010590000105A000010AE
:101BC00066000010300000105C0000105D00001086
:101BD0005E0000106800001034000010600000106B
:101BE00061000010620000106A0000103800001050
:101BF00010B5FEF76FFE2748806800F00F0004283C
:101C00001CD1002410E02448008820440C2802DB6A
:101C100000F042FD0AE01F4800781F49098821446E
:101C20001E4A5054601CC4B2082CECDB00BF1A489A
:101C3000008808301849088000F022FD15488068A7
:101C400000F00F000C2822D111E0134800880C2866
:101C500002DB00F021FD0FE00E4800780F490E4A2C
:101C6000128888540C480088401C0B490880094899
:101C7000007D10F0010FE8D100BF07480088084937
:101C8000088000F009FD07480068FEF705FFFEF731
:101C900033FE10BD00C00040560000108415001037
:101CA000640000102C00001010B5FEF713FE27484A
:101CB000806800F00F0004281CD1002410E02448A4
:101CC000008820440C2802DB00F000FD0AE01F48D9
:101CD00000781F49098821441E4A5054601CC4B230
:101CE000082CECDB00BF1A4800880830184908802F
:101CF00000F0E0FC1548806800F00F000C2822D1AD
:101D000011E0134800880C2802DB00F0DFFC0FE034
:101D10000E4800780F490E4A128888540C480088F3
:101D2000401C0B4908800948007D10F0010FE8D1E4
:101D300000BF074800880849088000F0C7FC074832
:101D40000068FEF7A9FEFEF7D7FD10BD00000140B8
:101D50005A000010901500106600001030000010AE
:101D600010B5FEF7B7FD2748806800F00F00042883
:101D70001CD1002410E02448008820440C2802DBF9
:101D800000F0BEFC0AE01F4800781F490988214482
:101D90001E4A5054601CC4B2082CECDB00BF1A4829
:101DA000008808301849088000F09EFC15488068BB
:101DB00000F00F000C2822D111E0134800880C28F5
:101DC00002DB00F09DFC0FE00E4800780F490E4A40
:101DD000128888540C480088401C0B490880094828
:101DE000007D10F0010FE8D100BF074800880849C6
:101DF000088000F085FC07480068FEF74DFEFEF7FE
:101E00007BFD10BD008009405E0000109C15001095
:101E100068000010340000102DE9F0478246894622
:101E20002E48006840F080702D49C1F8C400B9F117
:101E3000000F0BD12B48006820F47000294908607E
:101E40000846006840F4A000086010E0B9F1010FF6
:101E50000BD12448006920F470202249086108460B
:101E6000006940F42020086101E0BDE8F087504699
:101E7000FEF7F8F907463A460B4600201A49FEF7E6
:101E80003FFA0546FEF7FBF9184908608320184918
:101E90000873184800688009B0FBFAF084B2204645
:101EA000E11704EB1161090A114A1171E11704EB02
:101EB00011610912A4EB012111700320114608736E
:101EC000872008720720FEF7C5FC06210720FEF7D1
:101ED000CDFC01200649486000BFC6E7C4C00F40E2
:101EE00000C00F4000C0024084D797414C00001052
:101EF0000080094000000010064A1168064A107070
:101F000000E0491E044A127D12F0400F01D1002961
:101F1000F7D170474C0000100080094010B5FEF763
:101F2000D9FC2748806800F00F0004281CD1002449
:101F300010E02448008820440C2802DB00F0FAFB63
:101F40000AE01F4800781F49098821441E4A50545E
:101F5000601CC4B2082CECDB00BF1A4800880830B3
:101F60001849088000F0DAFB1548806800F00F007F
:101F70000C2822D111E0134800880C2802DB00F065
:101F8000D9FB0FE00E4800780F490E4A128888549A
:101F90000C480088401C0B4908800948007D10F05F
:101FA000010FE8D100BF074800880849088000F009
:101FB000C1FB07480068FEF76FFDFEF79DFC10BDF2
:101FC00000C0094062000010A81500106A0000104F
:101FD0003800001002E008C8121F08C1002AFAD118
:101FE0007047002001E001C1121F002AFBD1704799
:101FF00070B502460C46FF25FF2309E012F8010BDD
:1020000080EA05010648405C80EA03050548435C18
:102010002000A4F10106B4B2F0D143EA052070BD5E
:102020007E2700007E2800002DE9F04305460C467F
:102030002E46A01E81B23046FFF7DAFF07464FEA70
:10204000272807F0FF09A01E305C404506D1601E1E
:10205000305C484502D10120BDE8F0830020FBE759
:1020600000B585B0FEF729FAFFF7D6FA41F2707095
:1020700000F078FB01214FF41650FFF7CDFEFEF77C
:1020800009FC00204FF4C872294BCDE902200193CE
:10209000049001200A23274A002100902648FEF7D9
:1020A0007FFD00208022254BCDE902200193049082
:1020B00004200D23224A002100902248FEF770FDE3
:1020C00000208022204BCDE90220019304900520BE
:1020D00012231E4A002100901D48FEF761FD0020DA
:1020E0004FF4C8721B4BCDE90220019304900620E7
:1020F0001023194A002100901848FEF751FD0020D6
:10210000FEF750FC164908600020FEF74BFC15490D
:1021100008600020FEF746FC134908600020FEF727
:1021200041FC12490860FEF7E1FC002005B000BD4B
:10213000C4000010000700103518000084130010C0
:10214000801500103D1A0000841600108018001041
:10215000311A000084180010C01E001089190000F8
:102160002C00001030000010340000103800001067
:102170000122164B1A70032802D0062823D10FE043
:10218000134A1288120A0A70114A12784A70104AC9
:102190001268120E8A700E4A1268120CCA7013E08E
:1021A0004A790B7942EA03228B7942EA0362CB79BE
:1021B00042EA0342074B1A601A461288C2F3C03241
:1021C000054B1A7000E000BF00BF70470700001009
:1021D0001400001008000010110000102DE9F84F45
:1021E00005460E46174600200090804681468246EE
:1021F00000248DF8005006F18000C0B28DF8010077
:102200008DF8027003216846FFF7F2FE80464FEA20
:10221000282908F0FF0A00BF05E01DF80400FFF7B9
:102220006BFE601C84B2032CF7DB4846FFF764FEAC
:102230005046FFF761FEBDE8F88F00002DE9F84F2A
:1022400081468A4615461E46DDE90A8B0C9C002015
:10225000009000276A4659468B480068FEF7C6FB87
:102260009DF8000000286FD18848008808286CD1AC
:1022700087480078484569D1844801888448FFF739
:10228000D3FE002862D0824840788AF80000804857
:102290004078032804D0052829D006287AD156E0B2
:1022A0007B48C0787A49897800EB012028807848FB
:1022B00040797749097900EB0120308028883188FE
:1022C00008441021B1EB400F04DA022020700020F6
:1022D000BDE8F88F308810B130887D2803DD0320F9
:1022E00020700020F4E7002020700120F0E768480B
:1022F000C0786749897800EB012028802888102160
:10230000B1EB400F03DA022020700020E0E76048C4
:102310000079FF2806D15E48407918B9012088F875
:1023200000000DE05A48007930B95948407918B991
:10233000002088F8000003E0032020700020C7E799
:10234000002020700120C3E79CE029E026E05048EF
:10235000C0784F49897800EB012028802888401CEC
:102360001021B1EB400F03DA022020700020AFE70C
:1023700047480179288808F810104548417928888D
:10238000012202EB400008F800100020207001201C
:102390009EE7FFE701202070002099E7002097E7E3
:1023A0003A48008808286BDD39480078484565D1EF
:1023B000364801883648FFF737FE00285ED034489B
:1023C00040788AF8000032484078102852D13048CE
:1023D000C0782F49897800EB012028802C4840796B
:1023E0002B49097900EB0120308028883188084486
:1023F0001021B1EB400F03DA02202070002067E7C4
:10240000308840B130887B2805DC214881793088CC
:10241000B1EB400F03D003202070002058E71B4889
:10242000008809381A498979884203D0042020702D
:1024300000204DE7002716E0072000EB4700144975
:10244000095C2888384408F81010082000EB470081
:102450000F49095C28883844012202EB400008F843
:102460000010781CC7B23088B842E5DC002020702C
:1024700001202DE701202070002029E7002027E718
:10248000002025E7002023E734000010680000103A
:102490009C1500102DE9F04F87B080468A461446FF
:1024A0001E46DDF84090142102A8FDF7D0FE00275B
:1024B000BB46002001900025BAF1030F09D0BAF104
:1024C000050F45D0BAF1060F79D0BAF1100F75D1CA
:1024D000A5E04046FFF710FD0320FFF70DFD710654
:1024E000080EFFF709FD8DF808808DF809A0700629
:1024F000000E8DF80A00002513E005EB44001028BB
:1025000000DD11E005EB440119F80100FFF7F4FCD0
:1025100005EB440019F80010E81C02AA1154681CCD
:1025200085B2B5EB460FE8DB00BF032000EB4600A9
:1025300081B202A8FFF75CFD07464FEA272BF8B2ED
:1025400001905846FFF7D8FC0198FFF7D5FC92E0C0
:102550008DF8088005208DF8090020128DF80A00FA
:10256000E0B28DF80B0099F80000012806D1FF2099
:102570008DF80C0000208DF80D0004E000208DF88F
:102580000C008DF80D00062102A8FFF731FD07466B
:102590004FEA272BF8B20190002505E002A9485D1B
:1025A000FFF7AAFC681C85B2062DF7DB5846FFF73B
:1025B000A3FC0198FFF7A0FC5DE000E05AE08DF875
:1025C000088006208DF8090020128DF80A00E0B27C
:1025D0008DF80B0019F814008DF80C00012000EBA9
:1025E000440019F800008DF80D00062102A8FFF73D
:1025F000FFFC07464FEA272BF8B20190002505E0C3
:1026000002A9485DFFF778FC681C85B2062DF7DB50
:102610005846FFF771FC0198FFF76EFC2BE08DF830
:10262000088010208DF8090020128DF80A00E0B211
:102630008DF80B0030128DF80C00F0B28DF80D0003
:10264000062102A8FFF7D4FC07464FEA272BF8B271
:102650000190002505E002A9485DFFF74DFC681CCC
:1026600085B2062DF7DB5846FFF746FC0198FFF7C9
:1026700043FC00E000BF00BF07B0BDE8F08F0000E2
:1026800001200349087000200249087070470000CB
:102690005400001055000010002003490870034941
:1026A000087003490880704754000010550000105E
:1026B00056000010012003490870002002490870EC
:1026C0007047000058000010590000100020034916
:1026D00008700349087003490880704758000010CB
:1026E000590000105A000010012003490870002012
:1026F00002490870704700005C0000105D00001087
:102700000020034908700349087003490880704796
:102710005C0000105D0000105E0000100120034905
:102720000870002002490870704700006000001027
:102730006100001000200349087003490870034934
:1027400008807047600000106100001062000010F7
:10275000022000DFAA2041070872552008720320DA
:1027600000DF70474FF47A7141434FF0804251606F
:1027700003211170AA21117255211172704700C1F5
:10278000814001C0804101C0804100C1814001C041
:10279000804100C1814000C1814001C0804101C031
:1027A000804100C1814000C1814001C0804100C121
:1027B000814001C0804101C0804100C1814001C011
:1027C000804100C1814000C1814001C0804100C101
:1027D000814001C0804101C0804100C1814000C1F1
:1027E000814001C0804101C0804100C1814001C0E1
:1027F000804100C1814000C1814001C0804101C0D1
:10280000804100C1814000C1814001C0804100C1C0
:10281000814001C0804101C0804100C1814000C1B0
:10282000814001C0804101C0804100C1814001C0A0
:10283000804100C1814000C1814001C0804100C190
:10284000814001C0804101C0804100C1814001C080
:10285000804100C1814000C1814001C0804101C070
:10286000804100C1814000C1814001C0804100C160
:10287000814001C0804101C0804100C1814000C051
:10288000C101C30302C2C60607C705C5C404CC0CF8
:102890000DCD0FCFCE0E0ACACB0BC90908C8D81868
:1028A00019D91BDBDA1A1EDEDF1FDD1D1CDC14D478
:1028B000D515D71716D6D21213D311D1D010F030A8
:1028C00031F133F3F23236F6F737F53534F43CFCB8
:1028D000FD3DFF3F3EFEFA3A3BFB39F9F83828E868
:1028E000E929EB2B2AEAEE2E2FEF2DEDEC2CE42438
:1028F00025E527E7E62622E2E323E12120E0A060A8
:1029000061A163A3A26266A6A767A56564A46CAC77
:10291000AD6DAF6F6EAEAA6A6BAB69A9A86878B8E7
:10292000B979BB7B7ABABE7E7FBF7DBDBC7CB474F7
:1029300075B577B7B67672B2B373B17170B05090A7
:1029400091519353529296565797559594549C5C37
:102950005D9D5F9F9E5E5A9A9B5B995958988848E7
:1029600049894B8B8A4A4E8E8F4F8D4D4C8C4484B7
:1029700085458747468682424383418180400102E4
:102980000408102040800000010002000100030044
:102990000100020001000400010002000100030028
:1029A0000100020001000500010002000100030017
:1029B0000100020001000400010002000100030008
:1029C00001000200010006000100020001000300F6
:1029D00001000200010004000100020001000300E8
:1029E00001000200010005000100020001000300D7
:1029F00001000200010004000100020001000300C8
:102A000001000200010007000100020001000300B4
:102A100001000200010004000100020001000300A7
:102A20000100020001000500010002000100030096
:102A30000100020001000400010002000100030087
:102A40000100020001000600010002000100030075
:102A50000100020001000400010002000100030067
:102A60000100020001000500010002000100030056
:102A70000100020001000400010002000100030047
:102A80000100020001000000A82A00000000001060
:102A9000C4000000D41F00006C2B0000C400001014
:102AA000BC340000E21F000000093D0000000000EF
:102AB0000000000000000000000000000000000016
:102AC0000000000000000000000000000000000006
:102AD00000010000000000000000000000000000F5
:102AE000000000000000000000000000701700005F
:102AF0007017000070170000701700000000000041
:102B000000000000000000000000000000000000C5
:102B100000000000000000000000000000000000B5
:102B200000000000000000000000000000000000A5
:102B30000000000000000000000000000000000095
:102B40000000000000000000000000000000000085
:102B50000000000000000000000000000000000075
:0C2B600000000000000000000000000069
:04000005000000CD2A
:00000001FF
